:020000040000FA
:1000000000020400000000006E0400006E04000006
:100010006E0400006E0400006E0400006E04000018
:100020006E0400006E0400006E0400006E04000008
:100030006E0400006E0400006E0400006E040000F8
:100040006E0400006E0400006E0400006E040000E8
:100050006E0400002C0400004E0400006E0400003A
:100060006E0400006E0400006E0400006E040000C8
:100070006E0400006E0400006E0400006E040000B8
:100080006E0400006E0400006E0400006E040000A8
:100090006E0400006E0400006E0400006E04000098
:1000A0006E0400006E0400006E0400006E04000088
:1000B0006E0400006E0400006E0400006E04000078
:1000C0006E0400006E0400006E0400006E04000068
:1000D0006E0400006E0400006E0400006E04000058
:1000E0006E0400006E0400006E0400006E04000048
:1000F0006E0400006E0400006E0400006E04000038
:100100006E0400006E0400006E0400006E04000027
:100110006E0400006E0400006E0400006E04000017
:100120006E0400006E0400006E0400006E04000007
:100130006E0400006E0400006E0400006E040000F7
:100140006E0400006E0400006E040000669700005C
:1001500066970000669700006697000066970000AB
:10016000669700006697000066970000669700009B
:10017000669700006697000066970000669700008B
:10018000669700006697000066970000669700007B
:10019000669700006697000066970000669700006B
:1001A000669700006697000066970000669700005B
:1001B000669700006697000066970000669700004B
:1001C000669700006697000066970000669700003B
:1001D000669700006697000066970000669700002B
:1001E000669700006697000066970000669700001B
:1001F000669700006697000066970000669700000B
:10020000FFFFFF00FFFFFF006E0400006E04000010
:100210006E0400006E0400006E0400006E04000016
:100220006E0400006E0400006E0400006E04000006
:100230006E0400006E0400006E0400006E040000F6
:100240006E0400006E0400006E0400006E040000E6
:100250006E0400006E0400006E0400006E040000D6
:100260006E0400006E0400006E0400006E040000C6
:100270006E0400006E0400006E0400006E040000B6
:100280006E0400006E0400006E0400006E040000A6
:100290006E0400006E0400006E0400006E04000096
:1002A0006E0400006E0400006E0400006E04000086
:1002B0006E0400006E0400006E0400006E04000076
:1002C0006E0400006E0400006E0400006E04000066
:1002D0006E0400006E0400006E0400006E04000056
:1002E0006E0400006E0400006E0400006E04000046
:1002F0006E0400006E0400006E0400006E04000036
:100300006E0400006E0400006E0400006E04000025
:100310006E0400006E0400006E0400006E04000015
:100320006E0400006E0400006E0400006E04000005
:100330006E0400006E0400006E0400006E040000F5
:100340006E0400006E0400006E040000669700005A
:1003500066970000669700006697000066970000A9
:100360006697000066970000669700006697000099
:100370006697000066970000669700006697000089
:100380006697000066970000669700006697000079
:100390006697000066970000669700006697000069
:1003A0006697000066970000669700006697000059
:1003B0006697000066970000669700006697000049
:1003C0006697000066970000669700006697000039
:1003D0006697000066970000669700006697000029
:1003E0006697000066970000669700006697000019
:1003F0006697000066970000669700006697000009
:100400006F012200AE7E22000E0188000000000075
:10041000000020000000E000020032000001200087
:1004200020028800140007002E0107000000E000F1
:1004300003003A00607C2700010020000200370022
:100440000000200001002000810F70000100320038
:1004500014000700000020000000E000020032004D
:100460000000020000000000B47E02000000000056
:100470000040DA000000FE004440A900C03B20001C
:100480000000E0000300320000002000A00188000E
:100490004440A800000006008A1F78008B1F7800E7
:1004A0000000060091018800800478000000EB0045
:1004B0001A003700E284440032A0B4009905BA0063
:1004C000E284440032A0B4009906BA00E2844400F9
:1004D00032A0B4000006EB00476FDE00FD07B2005B
:1004E000636CE10003003A00EBFF07000000EB0043
:1004F0000A003700606CE10004003A00005DEB0088
:100500008B05E900FDFF3E00040037006168E10053
:10051000010032000086EB000B00070019C7BA008B
:100520001905BA000E04E00003003A000A00E000DA
:10053000E0FF3A0000000600FE07B2009E018800BE
:100540008A047800F5FF3700395DBA008B05E900B1
:100550000C003200295DBA008B05E900080032006A
:100560000C00E00003003A00E284440032A0B40032
:10057000F5FF370019DDBA008B05E900FAFF3A00F4
:100580008904E800E184440032A0B40000000600C1
:10059000000000000000000000000000000000005B
:1005A000000000000000000000000000000000004B
:1005B000000000000000000000000000000000003B
:1005C000000000000000000000000000000000002B
:100850000000000000000000809FBE00821F7800A2
:1008600032118000B0FE800091FE8000827078001E
:10087000B0FE80000000E800B0FE8800A1FE80000D
:10088000810F500001003A009560A9008560A90021
:100890004F0178004F00BE0000400600809FBE0060
:1008A000D0FE80000000E800D0FE8800E1FE80005D
:1008B000810F500002003A009580A9000400370023
:1008C000C1FE8000614078000080FB00201188009C
:1008D0008580A9004F00BE00004006000040DA00FD
:1008E0000000FE000000050003F0A200889FBE008B
:1008F0008A9FBE008C1F78004A0107005101330017
:100900006450E1004F0032006420E10052003200E8
:1009100003826C0007003B000905D0000306D000ED
:10092000820F54000C065D00020039000200320004
:1009300089017800030678008582550004003D0097
:100940000003FD008103FD008502EA008B85420063
:10095000840F720002003B0060001000E08018006D
:100960006011B8000005EB007A28E1000A003900A8
:1009700006007800C75DDD00F707B20087807500CC
:100980002D003700828171000A0178006105600046
:100990008180D1000080D3008502E900F9FF3B008F
:1009A000060440008784480002003B0060041400F5
:1009B000E0841C000988A300070032008A817100CE
:1009C00082817100610164008904D1000884D30030
:1009D0008B05E800170037000978A30013003A00E0
:1009E0000B00E000130034008B05E900080444000C
:1009F00089844C000A4474000978A3000D003A0071
:100A00000B00E000070034008B05E90008044400F7
:100A100089844C0001003A000B0020000978A300F3
:100A2000F7FF32000001EB00020037008281710005
:100A30000A017800C00007000CF0A70001F0A00038
:100A4000090137006420E10002003A00838F6C0046
:100A5000090133000801BE000200BE000201370098
:100A6000889FBE008A9FBE008C1F7800ED000700A3
:100A7000F400330003866C006450E1002E00320065
:100A80006420E100330032006150E1002F003200A9
:100A90006120E1003100320085855500EB07B00090
:100AA0000900200008042000050037000804440065
:100AB00089844C000A0031000603430087834B0001
:100AC0000001530081815B00F8FF33000203BE0088
:100AD0000800A0000804440089844C00F6FF390097
:100AE000C639DD00830173000100320013002000CD
:100AF0008904D1000884D3000998A30005003200BE
:100B00000800A7000300A0008904D1000884D300D6
:100B10008B05E8008904D1000884D3000001EB00B4
:100B20000281D2008400070001F0A1000CF0A700B0
:100B300001F0A000CC0037006420E100CE003200BC
:100B40000801BE000200BE00F7FF37006120E1008F
:100B5000C90032006000B800F3FF37000000200039
:100B600001F82700F0FF370014002000B001370023
:100B7000F4FF2F00AE0137000003BE009400070011
:100B80006011B8000470A70007F0A10007F8A300E7
:100B900017003A006509B1000D0032000D00350064
:100BA000860220000628E10003003500030028002B
:100BB0006000B8000200050000004000818048008D
:100BC00002014900838149008502E900FAFF3A00E9
:100BD00000000600F88F4200050034008100D100BB
:100BE0000080D3008502E800FCFF3A000000060008
:100BF0006011B8008000EB00000005000001BE009D
:100C0000730007000470A70003F0A10003F8A3001D
:100C100013003A006509B1001000320009003500E8
:100C20006928E100020035000100280000000500ED
:100C300000004000818048008502E900FCFF3A0086
:100C400000000600F88F4200050035008100D10049
:100C50000080D3008502E800FCFF3A000000060097
:100C60008000EB00000005004F89DE008201780063
:100C70008A013700889FBE008A9FBE0000827000F4
:100C80000402710004827100260032000004BE00DC
:100C90000200BE006011B8006B0920009502200020
:100CA0000182CF000A0039000541B1000082CF0067
:100CB000070039000541B1000982CF000400390066
:100CC0000541B1000882CF00010039000541B100A3
:100CD00005425200120032000A003B00828171007E
:100CE000610164008100D1000080D3008984D300B9
:100CF0000884D3008B05E8000442E800F7FF3A00BF
:100D0000070037000804440089844C0000004800B4
:100D1000818048008B05E9000442E900F9FF3A00B0
:100D2000050007004F05BE004F04BE00000006008E
:100D30006011B800CFFF37008100200061805500AE
:100D40000B003D000B00200061FE2F000100E100C0
:100D50001D00340082817100610164008904D100AA
:100D60000884D3000000E800FAFF3A007100200078
:100D7000610064000300700002006000090032009E
:100D800061044400E0844C000988A500050032009D
:100D90008B05E8006808E10002003A008904D100F0
:100DA0000884D300F20F20000258E10005003D0046
:100DB000C75DDD00F907B200898075000800780082
:100DC000000006000BF827008B00780000000500EB
:100DD000C70ADE00F107B200F50FB20008003200CA
:100DE000E1CF4200020032000170A00024000500A3
:100DF000810F700001003200040805004400050066
:100E0000810F700002003A00140005008502E9001D
:100E10000000400081C04800FCFF3B000170A000C2
:100E2000240005000004BE00E9FF07000003BE0027
:100E30000405BE000200BE00E5FF0700844F7500F8
:100E4000000006000200BE006450E100050036000C
:100E50006420E100020036000968A30001003A00A6
:100E60000800BE000160A0004F0678004F05BE00DC
:100E70004F04BE0000000600F0FF2F00F1FF270026
:100E8000F9FF3700889FBE008A9FBE008C1F780044
:100E9000E4FF0700EBFF330003866C006450E100C1
:100EA000240032006420E100270032006150E1009C
:100EB000220032006120E100210032008B854200D7
:100EC000EB07B1000134B800003AB8000804420052
:100ED00089844A00013AB8000030B8008880400098
:100EE00009014A00040033000000400081804800EE
:100EF000020149008B05E900C909DD00830170008A
:100F00000100320013002000C814DE004814DD0088
:100F10004709DE001200B200C808DE000884700035
:100F200085FF070001F0A1000CF0A70001F0A00070
:100F3000CDFF37006120E100CFFF32000801BE0085
:100F40000200BE00F7FF37006150E100FCFF3A00ED
:100F5000C9FF37006022B800060220000000D00060
:100F60008180D2000482D2008582D2000000A000DD
:100F70000202520083825A00030031000202420042
:100F800083824A000000A1000603E900F3FF3A0053
:100F900000000600EFFF07000400BE00000006008E
:100FA000889FBE008A9FBE0030044200B0844A0081
:100FB00030054B0090854B006000B1000898BE00E2
:100FC0000A90BE000440E10005C8E10006D0E1003F
:100FD00007D8E10002003100680040001008E80076
:100FE0004F05BE004F04BE0000000600889FBE00F3
:100FF0008A9FBE003004BE002005BE0004185400C5
:1010000005985C0006185D0007985D00110020003F
:101010000440E10005C8E10006D0E10007D8E10086
:10102000010039008000EB00108810004F05BE0061
:101030004F04BE00000006001200FA00889FBE00A8
:101040008A9FBE008C9FBE00E0B79F00F1B79F0053
:1010500082BF9F0093BF9F000605BE000404BE0030
:101060000000EB00D0B79F00C0B79F00B0B79F0053
:10107000A0B79F0090B79F000006EB005FB19700FC
:10108000CFB09700820141003FB097000200E0001E
:1010900004003D00370007007E805700C0FF0700B6
:1010A00003003700330007007E805700CFFF0700A2
:1010B000DFB697000D00E0000C0035006FB297001E
:1010C000FFB297000FBB97009FBB97001000200056
:1010D000010020006011B8000002720081827200DD
:1010E00002037300838373001B0007000C06E800F3
:1010F00001042000810F5600E0FF3A000D00E000DF
:1011000004003D000802BE000A03BE007E805700B6
:10111000A3FF07005FA897000000E00005003A0069
:101120001FB29700AFB297003FB39700CFB39700BD
:10113000090007006FB09700FFB097000FB9970044
:101140009FB997004F06BE004F05BE004F04BE007A
:101150000080FA0000000600010007000000060001
:10116000A4B79F00B5B79F00C6B79F00D7B79F0031
:10117000000006004F09DE0082817100B3B79F00B6
:101180004F01DE008180400082807000A1B79F0087
:101190008FB097004F09DE00000040000200700091
:1011A00090B79F007FA897004F01DE00818040002C
:1011B0008280700081B79F000D0007004F3ADE006B
:1011C0000000400004007000F0AF9F00080007001E
:1011D0000402420085824A0006034B0087834B00CD
:1011E000DFFF07000802BE000A03BE000000060081
:1011F0002FB29700BFB297004FB39700DFB39700AD
:1012000000000600881F780018002000881F780062
:1012100089FF07008F87E9004F047800000006006F
:10122000801FEB0084FF07008F87E90000000600A5
:10123000889FBE008A9FBE00841F7800F9FE0700C9
:101240004F00780011003300F0FF2F00838F6C00F7
:1012500006003B00040565000A00A70008003700EF
:1012600009F0A6001000200008003700820F54008B
:10127000838F5C00030039001000200001003E0055
:101280000000200009F0A7000000EA004F05BE00A2
:101290004F04BE000000E00000000600881F780038
:1012A000030478000300E00007003D006000100028
:1012B000E080180060011900E081190002003B0085
:1012C00001F02D00030037006AFE070008F0A700B8
:1012D00001F0A0004F0478000000060080017800B3
:1012E00002003700B15978000201E9000200E00075
:1012F000FCFF3A0000000600800178000200370081
:10130000815978000201E9000200E000FCFF3A0088
:101310000000060000520000455400005552000035
:101320004E000000525500004E0000004C490000E5
:1013300053540000004500005849000054000000CC
:101340004E450000570000004C45000054000000CE
:101350004946000000540000484500004E000000CF
:10136000454C000053450000004700004F5400006A
:101370004F000000474F000053550000420000009E
:101380005245000054550000524E0000005200002B
:10139000454D000000500000524900004E5400002E
:1013A000004900004E500000555400000046000067
:1013B0004F520000005400004F0000004E45000056
:1013C0005854000000520000454100004400000055
:1013D000444100005441000000530000544100000B
:1013E00052540000520000005354000041520000CB
:1013F00054000000535400004F5000005200000001
:10140000535400004F50000000530000454E0000B0
:1014100044000000524500004345000049560000CA
:1014200045000000434C00004B0000004441000018
:1014300054000000424900005452000045410000A1
:1014400044000000414400004300000041550000FA
:1014500058500000494E0000005000005355000055
:1014600000500000554C00004C550000500000009A
:10147000444500004C410000590000004155000067
:101480005800000046520000455100000044000092
:1014900055540000590000004D4100004352000027
:1014A0004F000000454E000044000000A4890000E9
:1014B000A8890000AB890000B0890000B589000050
:1014C000BA890000C0890000C7890000CB890000EC
:1014D000D1890000D7890000DB890000DE89000087
:1014E000E3890000E8890000ED890000F48900002C
:1014F000FA890000008A0000058A00000A8A0000BC
:10150000128A0000168A00001A8A0000228A00004F
:10151000268A00002D8A0000318A0000388A0000E7
:101520003E8A0000428A0000478A00004C8A000080
:10153000528A000000000000002E0000003A000067
:1015400020000000005E0000BCE20000613F0000DF
:10155000DD830000C29C00007E200000A3FD00008F
:101560001F4100009DC30000217F0000FCA200007D
:10157000401E00005F010000E3BD00003E6000006F
:1015800082DC0000237D00009FC10000421C00009F
:10159000FEA00000E1BF00005D03000080DE00004F
:1015A0003C620000BEE00000025C0000DF81000041
:1015B000633D00007C220000C09E00001D4300002F
:1015C000A1FF000046180000FAA4000027790000DF
:1015D0009BC5000084DA000038660000E5BB00000F
:1015E00059070000DB85000067390000BAE40000FD
:1015F0000658000019470000A5FB000078260000EF
:10160000C49A0000653B0000D9870000045A00001E
:10161000B8E60000A7F900001B450000C6980000CE
:101620007A240000F8A60000441A000099C70000C0
:10163000257B00003A64000086D800005B050000AE
:10164000E7B900008CD20000306E0000EDB300005E
:10165000510F00004E100000F2AC00002F7100008E
:1016600093CD0000114F0000ADF30000702E00007C
:10167000CC920000D38D00006F310000B2EC00006E
:101680000E500000AFF10000134D0000CE9000009E
:10169000722C00006D330000D18F00000C5200004E
:1016A000B0EE0000326C00008ED00000530D000040
:1016B000EFB10000F0AE00004C12000091CF00002E
:1016C0002D730000CA94000076280000ABF50000DE
:1016D0001749000008560000B4EA0000693700000E
:1016E000D58B000057090000EBB5000036680000FC
:1016F0008AD4000095CB000029770000F4AA0000EE
:1017000048160000E9B70000550B000088D600001D
:10171000346A00002B75000097C900004A140000CD
:10172000F6A80000742A0000C8960000154B0000BF
:10173000A9F70000B6E800000A540000D7890000AD
:101740006B35000049090000004F0000090000004F
:1017500048090000004C0000090000003E000000A5
:10176000001B00005B00000044000000430000007C
:101770000D0A00002800000078000000293E00004B
:10178000002E0000200000004275000073200000C1
:10179000506900007261000074650000207600004E
:1017A00033000000436F00006D6D0000756E000097
:1017B000697400007920000046690000726D000025
:1017C000776100007265000020760000372E00006F
:1017D000312000002D200000676F00006F2E0000F8
:1017E000676C00002F670000437A0000516E000014
:1017F000572000002877000069740000682000006E
:10180000493200004320000044650000627500007A
:10181000672000004657000020760000312E0000AF
:10182000302900000D0A000000290000002E0000F1
:10183000203C00000000000000000000010000004B
:101840000000000002000000000000000400000092
:101850000000000008000000000000001000000070
:101860000000000020000000000000004000000018
:101870000000000080000000000000008000000068
:101880000000000000010000000000000002000055
:10189000000000000004000000000000000800003C
:1018A0000000000000100000000000000020000008
:1018B0000000000000400000000000000080000068
:1018C0000000000000000000010000000000000017
:1018D0000200000000000000040000000000000002
:1018E00008000000000000001000000000000000E0
:1018F00014340000040D00008206000040030000C4
:10190000A0010000CF0000006700000044000000BC
:10191000220000007F000000000000000000000026
:101920002C01000000000000580200000000000030
:10193000B00400000000000060090000000000008A
:10194000C012000000000000802500000000000020
:101950004038000000000000004B000000000000C4
:1019600080700000000000000096000000000000F1
:10197000C0DA00000000000000E1000000000000EC
:1019800000C200000100000000F40000010000009F
:1019900000E800000300000030300000302C0000A0
:1019A00000300000300000000808000008080000B7
:1019B0000800000000300000313200003334000025
:1019C000353600003738000039410000424300003E
:1019D0004445000046000000314100004C53000027
:1019E000014200005076000033000000210000009A
:1019F0000010000000230000000F00004240000023
:101A0000400500004102000000000000000000004E
:101A100000690000D05D00006DDB00005D6B000020
:101A2000CB5D000069D000005D00000000000000F8
:101A3000181C00001D0C0000161A00000B0F0000FF
:101A40001E1700001B0000000020000029000000FD
:101A50001B5B0000323400007E00000014500000C8
:101A60000108000001030000000000000035000034
:101A70003F6200006100000029000000000000003B
:101A8000000000000000000000000000D0F4800012
:101A90000000E800F007B20081E12100E140780099
:101AA00080C7B30080CF5000100032007440500057
:101AB00080CF50000900320000C0E90080CF500004
:101AC000080032000040EB0072C7B30082CF500024
:101AD00008003A0030002000050037001000200008
:101AE0000300370020002000010037000000EB0059
:101AF0000040E800000006004216800080006100FF
:101B000050BA28000100320020BA2800786702008D
:101B100000000000000006005216800080006100F6
:101B2000B0BA28000100320080BA280078670200AD
:101B300000000000000006008000780000C3B30031
:101B40000100E000010032000040E80006660200EB
:101B50000000000000000600E0F48000C1F48000F6
:101B6000810F500004003A0070C0B3000666020006
:101B700000000000080037000000E800F207200025
:101B8000C1E921008208600060FD280001002000FA
:101B9000687C02000000000000000600A0FC280095
:101BA00001002000687C02000000000070FE21009F
:101BB0001081FB00000320000091B90001C9210041
:101BC00001004100786702000000000080FE210053
:101BD000100078006400600004003200C0EC2800AF
:101BE00001002000687C020000000000E0BA28002C
:101BF000786702000000000000000600889FBE0019
:101C00008A9FBE0080057800D1F48000C0F4800077
:101C1000808F50000C00320084E121008041EB00F5
:101C2000F2072000037278000000E9000200600063
:101C3000808F5000FBFF3A00C0F488000041EB00A9
:101C400081E12100827078000B00E900F007B2000A
:101C5000C2F480000004EB00820F5000120032003A
:101C600081E12100E14078000104E00007003A0032
:101C700003003700E44078000104E00005003A006A
:101C80000004E800F807B20007003700F30720005F
:101C900084E121000000E90003006000820F500091
:101CA000F4FF3A000004EB00BCFF07008B0F540068
:101CB0000E00320089E12100FA07200069407C0013
:101CC0000666020000000000C0F4800068F07C009E
:101CD0000000E8000A006000C0F488000804E80082
:101CE0000A046400888F5500F4FF3A00C0F48000B5
:101CF0000041EB0081E1210082707800E0F488006F
:101D00004F05BE004F04BE0000000600889FBE00C5
:101D10008A9FBE00D8F480000804E900F807B200EA
:101D2000C0F48000800F5400170032000005EB0063
:101D300089E12100EBE9210069407C000004E0001A
:101D40000C003A000800E900F007B2006940780092
:101D50000004E000070032000A05E8001B007800DC
:101D6000800F550003003600800DE8000800780061
:101D7000A2FF07000804E900F807B200C0F48000E1
:101D8000880F5000ECFF3A0070C0B30006660200F6
:101D9000000000004F05BE004F04BE00000006001A
:101DA000889FBE008A9FBE00D9F480008904E900A4
:101DB000F907B200C0F48000808F54001800320090
:101DC0008000EB008AE12100EBE921006AC07C0081
:101DD0000004E0000D003A000900E900F007B2003D
:101DE0006A4078000004E000080032008100E8004A
:101DF0001B04E900810F540004003A00880D7800AC
:101E0000090078007DFF0700880078008904E90058
:101E1000F907B200C0F48000890F5000EBFF3A00D0
:101E2000F0F48000E10F50000400320070C0B300F5
:101E300006660200000000001400370057FF07008C
:101E4000C0F48000D1F48000810F500009003200FE
:101E500084E121008041EB00F2072000037278004A
:101E60000000E90002006000808F5000FBFF3A0094
:101E7000C0F488000041EB0081E12100827078000D
:101E8000E0F48800E0E921000008EB004F05BE0007
:101E90004F04BE000000060011C0B30010EA21008C
:101EA000014878008000EB00F1F48800C0F4800065
:101EB00082E12100017178000000E800F007B20023
:101EC000C0F48800E0F4880000BB28005A680200D3
:101ED000000000000000060070FE210010407800A5
:101EE0000004E00005003A00A08E28000100200058
:101EF000C27C020000000000140037000080FB00DC
:101F0000010320000180B9002002B00081C6210039
:101F10006100780000000100A0B828000100200046
:101F2000C27C020000000000C002A900C202A90099
:101F300080B9280001002000687C02000000000039
:101F400000BB28005A6802000000000000000600E4
:101F500070FE21001004E00005003A00A08E280069
:101F600001002000C27C02000000000034003700A5
:101F7000C002A900C202A80021E3A800200020009E
:101F80000265020000000000A0002000A86402001A
:101F900000000000011B2000810F50001A003600D5
:101FA00090002000A864020000000000712B2000B7
:101FB000810F50001400360080C728000100200067
:101FC000687C02000000000000BB28005A68020084
:101FD0000000000070FE21009080FB000003200044
:101FE0000088B9000002B00081C6210061007800BD
:101FF00000000100C0C6280001002000C27C0200D1
:10200000000000000D003700C002A900C202A900B4
:10201000008C280001002000C27C020000000000AB
:1020200080B9280001002000687C02000000000048
:1020300000BB28005A6802000000000021E3A9004C
:1020400000000600889FBE008A9FBE00E1F4800069
:10205000C0F480008004EB00808F5000100032003C
:102060008AE121000BC2B3000104E8006A407C0051
:1020700000F578000004E00001003A000B40780011
:1020800006660200000000008904E800880078006D
:10209000F107B200C0F48000810F5000F2FF3A0057
:1020A0000000E900F007B200C0F4880010BB28006F
:1020B000786702000000000009007800F066020066
:1020C0000000000040BB280078670200000000000C
:1020D0004F05BE004F04BE0000000600E0F4800083
:1020E000D1F48000810F500004003A0070C0B300AA
:1020F000066602000000000018003700C1F48000EE
:10210000810F50000C003A000000E900F007B20017
:10211000C0F488000041EB0081E12100827078006A
:10212000E0F48800A0FD280001002000687C020087
:102130000000000009003700E0FC2800010020003A
:10214000687C020000000000C0E921001001E900E5
:10215000F107200001086100BAFF07000000060037
:10216000E1F48000D0F48000808F500004003A0039
:1021700070C0B300066602000000000001003700D6
:10218000B0FF070000000600889FBE00E1F4800059
:10219000D0F48000808F500003003A0070C0B3007C
:1021A0000666020000000000C9E92100D8F48000A2
:1021B00019041400F807B20010BB28007867020069
:1021C0000000000008007800F06602000000000037
:1021D00040BB28007867020000000000D0F48000B7
:1021E000800C78004F04BE0000000600889FBE00EF
:1021F000E1F48000C0F48000808F500003003A00BA
:1022000070C0B3000666020000000000C9E92100AA
:10221000C8F4800019045400F807B20010BB28006D
:10222000786702000000000008007800F0660200F5
:102230000000000060BB280078670200000000007A
:10224000C0F48000800C78004F04BE00000006003F
:10225000889FBE008A9FBE008C9FBE008E1F7800A4
:1022600080467800CAF480008A00E800F107B200D6
:10227000D0F48000808F50004B003200FFCF56001A
:1022800049003600E0C7B30080CF560046003E004C
:10229000E8F48000880F55000D003A000D407800EA
:1022A0000666020000000000C0F4800081E1210009
:1022B0008D7078000000E800F007B200C0F48800DC
:1022C0000041EB0082707800E0F4880039003700AC
:1022D00010BB2800786702000000000008045500C9
:1022E000FB0720000B006400F06602000000000005
:1022F00060BB28007867020000000000CAF480007C
:10230000C0E921001000E9008B0560008A8F5500AC
:10231000160032008BE1210028FD28000900200072
:10232000FC072000CEE921000A804500EB407D003B
:10233000114098006B407D000004E0000500320071
:1023400006660200000000000800BE00687C020073
:10235000000000000A05E9000C0565001E00E90008
:102360000C0060008A0F5000EFFF3A000D4078002B
:102370000666020000000000C1E92100110078009B
:1023800082E121000D7178000001E800F0072000D3
:1023900080086100C1F480008100E80000806000D6
:1023A000C0F488000300370070C0B3000666020066
:1023B000000000004F0778004F06BE004F05BE002A
:1023C0004F04BE000000060000EA210041C0B30037
:1023D00090CF100005003600447C02000000000091
:1023E00000EA21000048EB0010003700E0F4800014
:1023F000D1F48000810F5000090032000000E90094
:10240000F2072000C1E9210082086000E0FC2800FA
:1024100001002000687C020000000000030037007B
:1024200070C0B30006660200000000000000060055
:10243000FE65020000000000B1C5B300814F5000EE
:1024400029003A00FE6502000000000011C4B3003C
:10245000814F50001300320007003E00F0C05000D2
:10246000814F500013003200E3C04000814F500004
:102470001D003A001600370031C4B300814F5000F0
:1024800006003200090039008140E800814F500009
:1024900015003A00CCFF070013003700AEFD07001F
:1024A0001100370019FE07000F0037003CFE07003F
:1024B0000D003700FE65020000000000E1C7B30018
:1024C000814F500008003A002FFF07000600370038
:1024D000FE65020000000000E1C7B300814F50001C
:1024E00001003A0041FF070000000600889FBE007F
:1024F000E0E3280001002000C27C02000000000090
:10250000C02B280001002000C27C02000000000057
:1025100000A1280001002000687C020000000000EB
:1025200070FE21009080FB00000320000088B900AD
:102530004002B00081C62100610078000000010067
:1025400060E4280001002000687C02000000000018
:102550000040200068FD07000010200066FD070015
:102560000020200064FD07000004200062FD070039
:102570000008200060FD070000BB28005A68020028
:102580000000000020FB280001002000687C020001
:102590000000000021E3A800A0002000A8640200C1
:1025A0000000000006670200000000008803290008
:1025B000090020000800BE00687C02000000000046
:1025C00090C0B300066602000000000090002000EA
:1025D000A86402000000000006670200000000007E
:1025E0000800BE00687C02000000000090C0B3003C
:1025F0000666020000000000C0002000A86402007F
:102600000000000006670200000000000800BE0095
:10261000687C02000000000090C0B3000666020063
:1026200000000000B0002000A864020000000000CC
:1026300006670200000000000800BE00687C02007F
:102640000000000090C0B300066602000000000019
:1026500021E3A900004020002FFD0700001020000A
:102660002DFD0700002020002BFD070000042000A6
:1026700029FD07000008200027FD070000BB2800F7
:102680005A680200000000004F04BE00000006006F
:1026900020F8280001002000687C020000000000F3
:1026A000C1BF2A000000EB00E0640200000000004F
:1026B0001C6602000000000060EF280001002000FE
:1026C000687C020000000000E1BF2A000000EB006F
:1026D000E0640200000000001C6602000000000030
:1026E00000BB28005A68020000000000E0D3280068
:1026F00001002000C27C0200000000007BFF0700F8
:10270000C202AB000500320080C728000100200093
:10271000687C0200000000000400370080B9280037
:1027200001002000687C020000000000C0C2B3006D
:10273000066602000000000000C2B3000666020048
:1027400000000000CB62AB000500320060B328003F
:1027500001002000687C0200000000000400370037
:1027600060A7280001002000687C02000000000033
:10277000C0C2B300066602000000000000C2B30041
:102780000666020000000000C0FE21001040780034
:102790007040600005003200806D280001002000BC
:1027A000C27C02000000000004003700C083280043
:1027B00001002000C27C020000000000C0FE2100D9
:1027C000104078006840600005003A00E08F280063
:1027D00001002000687C02000000000004003700B7
:1027E0002091280001002000687C02000000000009
:1027F000C0C2B300066602000000000000C2B300C1
:102800000666020000000000A093280001002000DE
:10281000687C020000000000B0FE2100104078003B
:10282000E26602000000000000BB28005A680200B7
:1028300000000000C0FE21001040780063406000EE
:10284000E14F500005003A0060A62800010020007A
:10285000C27C0200000000000400370060A52800D0
:1028600001002000C27C02000000000070FE210078
:102870009080FB00000320000088B9006002B000D7
:1028800081C621006100780000000100E0D328002B
:1028900001002000C27C02000000000000000600D1
:1028A000889FBE008A1F7800D3F480000300780060
:1028B000F007B20081E1210061407800F1CCB30063
:1028C00081404000E8CF50001A003E000080FB002D
:1028D0000003B1008300E800F107B20082E12100AB
:1028E00062C1780004CDB300044241001100200011
:1028F000E94F520076003E00F807200087E12100F2
:1029000006CDB3006A02B9000280FB00040040005B
:102910000003B1008100E80003814000080161006C
:102920006741790006424100E94F5200F5FF360049
:102930006700370001C3B300814F500060003A00C8
:102940000300E800F007B20081E121006141780056
:1029500020C6B300804F51000B003A000380E8000E
:10296000F007B20081E121006141780004CDB3009D
:10297000044241000000EB0021002000E14F520022
:10298000050036005200370020C4B300804F5100CC
:1029900010003A00F1FF3700F707200086E1210020
:1029A00005CDB300000040000281FB0002004000A2
:1029B0000003B1008100E8000381400007016100CD
:1029C0006641790005424100E14F5200F5FF3600B3
:1029D0003F00370080C7B300804F51000A0032002B
:1029E00080C5B300804F51001E003A000900370037
:1029F0004400DD000003B1000281FB000200400042
:102A00008100E8000A0037000000EB0021002000F0
:102A1000020037000000EB0021002000F807200032
:102A200086E1210007CDB300F9CBB300FAC9B300AA
:102A3000038240000802620066417A00874241003A
:102A4000E9CF5200EAFF360089424100E5CF52004B
:102A5000260036008A424100E5CF520023003600AE
:102A60001B00370004CDB300044241000000EB001E
:102A700011002000E94F520015003E000280FB00CB
:102A80000003B100F807200087E1210006CDB30064
:102A90006A02B9000280FB00040040000003B1009C
:102AA0008100E8000381400008016100674179006E
:102AB00006424100E94F5200F5FF3600040037009E
:102AC000C0FE21001074A0000000EB0004003700DD
:102AD000D2F4800082804000F107B200D1F4880077
:102AE0004F0578004F04BE00000006000254A0000D
:102AF00002737A004400DD007005B1000281FB0022
:102B000002004000BEFF3700881F7800D1F480002B
:102B10000100E800F007B20082E12100E241780004
:102B200010002000A2C3B30082CF510009003A0078
:102B30008180E800F807200088806000D1F48800D8
:102B400057FF0700D1F480008100E900088460008D
:102B5000D8F488004F04780000000600881F780031
:102B6000D1F480000100E800F007B20082E121000A
:102B7000E24178000000EB00B2C3B30082CF510005
:102B800009003A008180E800F80720008880600092
:102B9000D1F4880042FF0700D1F480008100E900F1
:102BA00008846000D8F488004F0478000000060014
:102BB000D0F4800081E121006141780001C2B300BE
:102BC000814F510009003A00F407200083E1210001
:102BD000014178000000E80004006000E340780054
:102BE00082CF5000FBFF3200D0F4880000000600C6
:102BF000889FBE008A1F780000447800D0F48000CF
:102C00000000E800F007B200D0F48800E8FF0700F9
:102C100023FF0700000578000804E00006003200EA
:102C2000B0FE2100904078000A007800B6640200EF
:102C300000000000000578000A4078004A660200A3
:102C400000000000E8FB2800090020000800BE008A
:102C5000687C0200000000000A407800E266020082
:102C6000000000000800BE00687C020000000000B8
:102C70000A407800446702000000000000BB280002
:102C80005A680200000000004F0578004F04BE00A3
:102C900000000600F0874700889FBE008A9FBE00A4
:102CA0008C9FBE008E1F7800F0B79F00E1B79F0099
:102CB000D2B79F0083BF9F00A8FD28000900200015
:102CC0006A9228000B00200080BB28007867020071
:102CD000000000007FB097000000E00004003D000D
:102CE000C0BB280078670200000000000300370026
:102CF0006FE89700E266020000000000E0BB2800D9
:102D000078670200000000000007EB008006EB007F
:102D1000FE6502000000000000467800ED4F5600FE
:102D20004500320005003E00E84F56000A00320020
:102D3000EA4F560029003A003F003700D0C2B300E6
:102D4000804F56001600320080C7B300804F5600F7
:102D500022003A001D0037000D00E000050032009F
:102D60008D06E9000800BE00687C0200000000003B
:102D7000E7FF37000E00E000050032000800BE004B
:102D8000687C0200000000000007EB00E0FF370055
:102D900070C0B3000666020000000000DCFF3700D0
:102DA0000D00E00005003A00D0C2B3000666020044
:102DB000000000001E002000D5FF370070C0B300E7
:102DC0000666020000000000D1FF37008FB89700B0
:102DD0000100E000140032003600370001CDB300DE
:102DE00001404600E94F50000F003E00E38F5600BF
:102DF0000500340070C0B300066602000000000049
:102E00004D002000C2FF37000C407800066602002B
:102E1000000000008C4078007C80570001F07E00AC
:102E20008D06E800BAFF370070C0B30006660200E6
:102E300000000000B6FF370000BB28005A680200FF
:102E4000000000000D00E0001E0032000D00E9004F
:102E50008000EB00080033007C8057008D064000A6
:102E60006A09B900B080FB000103B1008280400014
:102E70008D0F5000FAFF3A006FB09700810F50009D
:102E800008003C005FB09700810F5000050035003E
:102E90000E00E0000A0032000100EA00F0B79F00D7
:102EA000080037000A00BE00C27C020000000000DB
:102EB00085FF37008080EB00F1B79F0001003700ED
:102EC000F1B79F007FB097004F0778004F06BE0014
:102ED0004F05BE004F04BE000F01B1000000060008
:102EE0000E00FA00889FBE008A9FBE008C9FBE0025
:102EF000D0F480000004E900F807B2001D002000B3
:102F0000880F50002A00320089E12100FB072000D1
:102F100069407C000004E00020003A000806E80058
:102F20000B06660069407E000004E0001B003200D2
:102F30000D407800E26602000000000010BC28008E
:102F4000786702000000000069407E000004E00095
:102F5000080032000885E800066602000000000054
:102F60000B006500694078000A05E8000004E000F5
:102F7000F9FF3A000D8046000C017800FA805700F6
:102F8000823078008D06E800E78F56000800320096
:102F900000BB28005A680200000000000804E90095
:102FA0000B046400D0F48000800F5400D8FF3A0076
:102FB00000BB28005A68020000000000A0EE2800B4
:102FC00001002000C27C020000000000130020006D
:102FD0000D017800830078000000EB002DFF070052
:102FE0008000E800E18F50000B0036000000400038
:102FF000FA805700E102780005007800F007B2007F
:1030000081E12100E14078000000EB000104E000D4
:1030100006003A001200370000BB28005A68020080
:1030200000000000100020001C003700C6F48000E3
:103030000000EB00F307200082E1210006024000BF
:103040000302620001717A000000E8008500400080
:1030500083806000E2C078000104E000F7FF3A00DE
:10306000C2F480000201E900F107200001016100C3
:10307000D2F488000281E8000000410001006000F5
:10308000C0F488000000E900810060000041EB000E
:1030900080E1210002F078000000EB004F06BE0046
:1030A0004F05BE004F04BE000080FA00000006007D
:1030B000889FBE008A9FBE00D0F480000000E80018
:1030C000F007B200D0F48800B9FE0700F4FD070055
:1030D0000000E00045003A000004EB000903200076
:1030E0008AC621000840E800E266020000000000F5
:1030F00010BC2800786702000000000009C0B90079
:103100008002B0000A0040005A680200000000007F
:103110000804E800E90F5400F2FF3A0060AA280012
:1031200001002000C27C020000000000C0FE21005F
:103130001074A1001300200092002000830078008A
:1031400003007800D3FE07000004E9000000E80057
:10315000E10F500005003E0040D328000100200090
:10316000C27C0200000000003F00370079FE210011
:103170001980FB000A0320000A80B9002002B00079
:103180008BC621006B007800000001007264020011
:1031900000000000884C78000880FB000A80B9001D
:1031A0007E0540006B007D0000000100A0B82800F3
:1031B00001002000C27C0200000000000800E000C6
:1031C00005003200C222A800603C28000100200057
:1031D000C27C020000000000A0F7280001002000CF
:1031E000C27C0200000000001F0037000004E9005C
:1031F000E80F540018003C0079FE21001980FB0004
:103200000A0320000A80B9002002B0008BC621000A
:103210006B007800000001007264020000000000F2
:10322000884C78000880FB000A80B9007E054000C9
:103230006B007D00000001000800E000010032008A
:10324000C222A800A0F7280001002000C27C0200D2
:10325000000000000400370060AB280001002000DF
:10326000C27C020000000000C0F480000000E90001
:10327000F007B200D0F488004F05BE004F04BE0036
:1032800000000600881F7800D0F480000000E800ED
:10329000F007B200D0F4880045FE070080FD07006B
:1032A0008000E900E98F500003003E0051FE21003C
:1032B0008048E9000D003700C0FE21001074A10015
:1032C000E013280001002000C27C02000000000082
:1032D0008001EB00A20020001100200090002000DF
:1032E0006CFE070051FE21008048E9000004EB005D
:1032F00050FE210091C0B30090CF100011003A00A1
:103300002BFE070066FD0700000478000800E000BF
:103310000C003A00C0FE21001074A10060B128002A
:1033200001002000C27C0200000000008001EB00D0
:10333000F2FF27008000EB002002200055FE07006E
:103340000004780020B5280001002000C27C0200A3
:103350000000000040C2280001002000C27C0200E2
:1033600000000000486902000000000050FE21003B
:1033700091C0B30090CF100003003A00080078001D
:1033800052690200000000002C65020000000000ED
:1033900008C2B300FE65020000000000884F500024
:1033A000FCFF3A004F04780000000600D0F48000D3
:1033B0000000E800F007B200D0F48800FCFD070030
:1033C00037FD07008000E900E38F500003003E0056
:1033D00061FE21008048E9000D003700C0FE210099
:1033E0001074A100006F280001002000C27C0200C0
:1033F000000000008001EB004200200011002000CE
:103400001000200023FE070061FE21008048E90033
:1034100040B4280001002000C27C0200000000002F
:1034200000000600889FBE008A9FBE0040BC2800A6
:103430007867020000000000E0C2B30006660200E8
:103440000000000040FE21001040780006660200E7
:103450000000000001FF8000F0442000808F500039
:1034600004003A0060AF280001002000687C0200E0
:103470000000000000BB28005A68020000000000A5
:1034800020BD28007867020000000000B0C5B3002E
:103490000666020000000000190020000004EB0096
:1034A0000A0320008BC62100020037000804E80050
:1034B0008904E8000800E0007300320000C2B30095
:1034C00006660200000000000AC0B9008002B000D9
:1034D0000B0040007867020000000000E88F5400F5
:1034E000F2FF3600D0C5B3000666020000000000FF
:1034F00080D4280001002000687C02000000000049
:10350000A1BF2A000000EB00E06402000000000000
:10351000000478004840DE00E2660200000000007F
:10352000E0C2B30006660200000000000840780018
:10353000E26602000000000000BB28005A6802009A
:103540000000000000EF280001002000687C02005D
:103550000000000008FE2100180078001C66020030
:103560000000000000F2280001002000687C02003A
:103570000000000010FF80001C6602000000000038
:1035800080D9280001002000687C020000000000B3
:10359000F0442000980F100005003A002003290095
:1035A00001002000687C02000000000004003700D9
:1035B0000003290001002000687C020000000000D8
:1035C00010FF800021042300810F50001100320001
:1035D00004003E00F103B100810F50001C003A00CE
:1035E0000700370031042300810F50000E00320025
:1035F000E3804000810F500015003A000F003700B3
:103600008002290001002000687C02000000000008
:1036100013003700A002290001002000687C02008E
:10362000000000000E003700C00229000100200049
:10363000687C02000000000009003700E002290059
:1036400001002000687C0200000000000400370038
:1036500060FC280001002000687C020000000000DF
:1036600050C128005A680200000000006082280053
:1036700001002000C27C0200000000004F05BE00D7
:103680004F04BE00000006000AC0B9008002B0006E
:103690000B004000786702000000000083FF370045
:1036A000FE874700889FBE008A9FBE008C9FBE0099
:1036B0008E1F78000000EB00D0F48800C0F4880072
:1036C000E0F4880071FE210080487800C1FE2100EE
:1036D0001174A10021EA2100470009008058EB0085
:1036E00050F78800C2EC280003002000D2AF9F00F2
:1036F000E3AF9F006AA828000B00200060E22800CA
:1037000001002000B0AF9F00C1AF9F00FAAF9F0043
:103710008BB79F0070FE21001081FB00000320008A
:103720000091B90001C92100010041007867020041
:103730000000000080FE210010007800640060009E
:10374000040032005FA89700EFA89700687C020091
:1037500000000000E0BA28007867020000000000C6
:1037600029EA21008DE12100CCFE2100F70037007D
:1037700050F780000000E000410032000000E90046
:1037800050F788007801B900E94079000104E000B1
:10379000130032000004EB00C2F48000817679004F
:1037A0007800B90000004400694078000666020015
:1037B000000000000804E800C0F480000000E800F9
:1037C000F007B200C0F4880050F780007801B9001B
:1037D00082004400E9C078000104E000EEFF3A00F6
:1037E0000000EB0050F78800250037009C4178006E
:1037F00064C061002400320071FE21001180FB00D2
:103800000880B9007A0040006A00780000000100DA
:103810000004E0001C00320072FE21001280FB0058
:103820000880B9008002B0000A00400078670200FA
:1038300000000000E0BA28007867020000000000E5
:10384000DBF48000C0F48000808F55000E00320051
:103850008B0F50000C003200FE0720006DC07D0071
:1038600006660200000000008E8565008B05E800FA
:10387000C0F480008B0F500003003200F7FF3700C8
:10388000080320008AC621005265020000000000E3
:103890000004E000D5FF320056690200000000007D
:1038A0000004E000030032005C6902000000000038
:1038B000A6003700FE650200000000000081FB004A
:1038C0008001EB00F1072000810F5100E08F5900CB
:1038D0009D003E0002600100930037008C0037001D
:1038E00083003700980037007D0037008A003700DA
:1038F00081003700940037007700370092003700CE
:1039000087003700900037008F00370084003700B1
:103910007D0037008C003700790037008A003700BF
:10392000890037008800370087003700860037009D
:10393000850037008400370083003700820037009D
:1039400081003700680037007F0037007E003700B5
:103950007D0037007C0037007B0037007A0037009D
:10396000790037007800370077003700760037009D
:10397000750037007400370073003700720037009D
:1039800071003700700037006F0037006E0037009D
:103990006D0037006C0037006B0037006A0037009D
:1039A000690037006800370067003700660037009D
:1039B000650037006400370063003700620037009D
:1039C00061003700600037005F0037005E0037009D
:1039D0005D0037005C0037005B0037005A0037009D
:1039E000590037005800370057003700560037009D
:1039F000550037005400370053003700520037009D
:103A000051003700500037004F0037004E0037009C
:103A10004D0037004C0037004B0037004A0037009C
:103A2000490037004800370047003700460037009C
:103A3000450037004400370043003700420037009C
:103A400041003700400037003F0037003E0037009C
:103A50003D0037003C0037003B0037003A0037009C
:103A6000390037003800370037003700360037009C
:103A7000350037003400370033003700320037009C
:103A800031003700300037002F0037002E0037009C
:103A90002D0037002C0037002B0037002A0037009C
:103AA000290037002800370027003700260037009C
:103AB000250037002400370023003700220037009C
:103AC00021003700200037001F0037001E0037009C
:103AD0001D0037000200370080F907001B00370087
:103AE0009FF907001900370051FA07001700370047
:103AF00035FA07001500370017F8070013003700E4
:103B000082F8070011003700A5F807000F00370002
:103B10009DF907000D003700B4F907000B003700CE
:103B2000DDF807000900370001EA21001140E80034
:103B300080487800F44F500004003A006A440200C4
:103B40000000000001003700C1F9070012EA21005F
:103B50001204E00006FF3200C3F48000C3B79F00E8
:103B6000D1F48000020078000048EB00C0FE210084
:103B70001074A10080FE2100100078006400600035
:103B8000070032006830020000000000A0F72800A3
:103B900001002000C27C0200000000000C0437007D
:103BA00081BF9F000040EB00E0E79F008CC1280030
:103BB0000D002000A2D228000300200092B79F0031
:103BC000A3B79F007FAD97008FB59700D0F480001A
:103BD00081E12100614178000281FB008001EB005E
:103BE000E1072000810F5100E08F5900D0033E0013
:103BF00002600100D0033700CD033700CC0337004B
:103C0000CB033700CA033700C9033700C8033700A6
:103C1000C7033700C6033700C5033700C6033700A4
:103C2000C3033700C2033700C3033700C0033700A4
:103C3000BF033700BE033700BD033700BC033700A6
:103C4000BB033700BA033700B9033700B8033700A6
:103C5000B7033700B6033700B5033700B4033700A6
:103C6000B3033700B2033700B1033700B0033700A6
:103C7000AF033700B0033700920337000402370068
:103C8000F3003700FA0037004B01370039013700E5
:103C9000A7033700E0013700A5033700A40337006E
:103CA000A3033700A4033700450337005E03370042
:103CB000290337006C0237006B0237006A023700B5
:103CC0006902370068023700670237006602370072
:103CD000650237006402370063023700940337003F
:103CE0009303370053013700C600370090033700B5
:103CF00047003700F8003700F40037008C03370026
:103D00006A0037001801370089033700880337003D
:103D100087033700860337008503370084033700A5
:103D2000830337006B0037008103370080033700BF
:103D30007F0337008D0037007D0337007C03370099
:103D4000310137007A0337007903370078033700F1
:103D5000F30037007603370075033700740337002C
:103D60001E023700090337002D0237003C033700DD
:103D7000200337006E033700D10037002F003700D3
:103D800042003700EA00370069033700310037008E
:103D90003300370016003700200037006403370077
:103DA00063033700550037002200370060033700F7
:103DB000240037005B0037005D03370094023700B2
:103DC0000E0137005A033700590337001F00370030
:103DD000D50037005603370055033700540337002A
:103DE000060237008A003700160237008B003700C2
:103DF0003BFC07000000E0004F033A00D2F48000D3
:103E000082BF9F00C3F48000C3B79F004A033700FE
:103E1000CC7C0200000000004703370081FD070052
:103E200070FE21001004E0004303320018FA07007E
:103E3000410337009EFC07003F03370011FD0700D8
:103E40003D03370059FD07003B033700A7F9070082
:103E500039033700F0580200000000003603370035
:103E600070FE21001004E00005003A00A08E28003A
:103E700001002000C27C0200000000002E03370079
:103E8000DC570200000000002B033700C0FE2100B9
:103E9000C1CFB30010C8600060A528000100200059
:103EA000C27C02000000000023033700C0FE210096
:103EB000C1CFB30090C060000104A00001487800A9
:103EC00060A6280001002000C27C02000000000063
:103ED00019033700C0FE21001034A00020912800F3
:103EE00001002000687C02000000000000BB2800E8
:103EF0005A680200000000000F033700C0FE2100D6
:103F00001034A100E08F280001002000687C02002E
:103F10000000000000BB28005A68020000000000FA
:103F20000503370070FE21001004E00005003A0090
:103F3000A08E280001002000C27C020000000000CA
:103F4000FD023700CB62A900C962A90060A7280062
:103F500001002000687C02000000000000BB280077
:103F60005A68020000000000F302370070FE2100D2
:103F70001004E00005003A00A08E28000100200097
:103F8000C27C020000000000EB023700C0FE2100EE
:103F9000104078007040600004003A0080702800F3
:103FA00001002000C27C020000000000C962A800DD
:103FB000CB62A90060B3280001002000687C0200E9
:103FC0000000000000BB28005A680200000000004A
:103FD00021E3A800B0002000A86402000000000057
:103FE000F1042000810F500004003E008079280079
:103FF00001002000C27C02000000000021E3A900B3
:10400000CD0237000040EB00F9FA0700CA02370082
:1040100010C0B300F6FA0700C702370070FE210097
:104020001004E00005003A0011C0B3000140780020
:10403000EA73020000000000BF023700E09F280082
:1040400001002000C27C020000000000BA0237001C
:10405000E0F7280001002000C27C02000000000000
:1040600048690200000000000000FE00B2023700B4
:10407000587D0200000000000004E000AE023200A3
:1040800011C0B300A07F220001487800E0E12800C1
:1040900001002000C27C0200000000004006200059
:1040A00002650200000000007264020000000000CF
:1040B00048690200000000000000FE009E02370078
:1040C000865C0200000000009B0237006A5C020070
:1040D00000000000980237008BFA07000004780007
:1040E0000800E0009402320009BB28000A00BE006C
:1040F000687C020000000000A25C020000000000DA
:104100000080FB008CF60700090078005A68020066
:10411000000000000804E900F4FF3A0086023700BE
:104120008BF70700840237006BF707008202370025
:1041300040C5280001002000687C0200000000004B
:104140003867020000000000800329000100200001
:10415000687C02000000000000BB28005A680200D2
:1041600000000000740237006668020000000000D2
:104170007102370064FA07000004780020ED28007F
:1041800001002000687C02000000000008007800A8
:10419000F066020000000000E0012900010020009C
:1041A000C27C020000000000080078000C650200DC
:1041B000000000006002370053FA07000004780096
:1041C00020ED280001002000687C020000000000B3
:1041D00008007800F066020000000000400229009C
:1041E00001002000C27C02000000000008007800EE
:1041F00002650200000000004F02370080FE21002F
:104200001020A0004C02370070FE21001004E000D6
:1042100005003A00A08E280001002000C27C0200A8
:104220000000000044023700C65C020000000000ED
:1042300041023700C1FE21001174A0000004E80013
:10424000F807B20081E1210061417C000204E00036
:104250001800320016C0B30011002000E5C3B300FF
:104260008043EB00F407200083E12100854F5100DB
:1042700001003A00074378008100E8000081400017
:1042800004016100634179000204E000F7FF3A0095
:10429000C0FE2100720020000233DD0010417800D2
:1042A0000274A10006487100FA8F5000010034002A
:1042B0001074A000C0FE21001004E0001E023500B2
:1042C000D8F4880076F9070000047800D0F4800064
:1042D00080007800F107B20082E1210062C178001D
:1042E000D1C3B300814F510021003A008800E9009A
:1042F000E28F50001B003E000000E800F007B20013
:10430000D0F488000801E9007811B90010EA210012
:1043100080004100010178000000EB008041EB00CB
:10432000036978000000E800F80F5000FCFF3A0035
:10433000D0F4800085E12100E4C3B300F30720003E
:1043400003003700826878000000E8000300600086
:1043500065417800844F5100FAFF3A00D0F488009C
:10436000F5013700C0FE21001074A000F2013700F3
:104370000800E0001D003A0020EA2100F0B79F008D
:104380001E00200078C12800E9BA2800DCB79F0091
:10439000EDB79F000A06BE00000578000E407800C9
:1043A000E266020000000000080078007867020062
:1043B000000000000A00780078670200000000009A
:1043C000090078005A680200000000000E07E800AB
:1043D00078054500E40F5700F0FF3A000C05BE00D9
:1043E0005FB69700EFB69700D30137000800E900E9
:1043F000E20F500005003E0000BB28005A68020092
:104400000000000058F78800CB013700C0FE2100F3
:104410001074A000C80137000000E800F807200071
:1044200008006000D0F488001DF9070080047800BF
:10443000DFF90700D0F480000804600080E121006B
:10444000E0407C0090C2B30080CF50000D003A00E5
:1044500070FE21009080FB00000320000088B9005E
:104460007C00400081C62100E1007800090078004E
:104470000100010000BB28005A6802000000000093
:10448000AD013700C0FE21001074A000AA01370062
:10449000C1FE21001174A0008000E800F107B20005
:1044A00082E12100E2C078000104E0001300320044
:1044B0000080E80015C0B30024C2B3000043EB0045
:1044C000F307200084CF500001003A0086427800B4
:1044D00083006000E2C078000000E8000104E00012
:1044E000F8FF3A00C0FE210071002000812ADD00A3
:1044F000904078000174A10005C87000C0FE210042
:104500001004E0008C01350080ED2800010020003F
:10451000687C02000000000020C2B30006660200B2
:1045200000000000D1F480008100E800F107B20033
:1045300080E1210060C0780022C2B300824F5000A9
:104540001E00320088E12100C9FE21007EFE21000C
:10455000D1F488000666020000000000D0F480005C
:10456000684078000080FB0099417800E8C0610055
:1045700004003200B2FE210092407800B6640200CE
:10458000000000001E81FB00010320000191B90022
:104590006801410083C62100E300790001000100A9
:1045A000D1F480008100E800F107B20068C0780013
:1045B00022C2B300824F5000E5FF3A00D1F48800D8
:1045C00020C2B300066602000000000000BB280005
:1045D0005A680200000000005701370070FE2100F9
:1045E0009080FB00000320000088B90082C62100F3
:1045F00062007800000001004F01370070FE2100CA
:104600009080FB00000320000088B9000080E800D3
:1046100081C62100610078000000010046013700DA
:1046200070FE21009080FB00000320000088B9008C
:104630006400400081C62100610078000000010094
:104640003D01370070FE21009080FB000003200038
:104650000088B9006600400081C621006100780032
:10466000000001003401370080ED28000100200027
:10467000687C02000000000089F80700F0B79F0086
:10468000D0F480000000E900F007B200D0F4880008
:104690001DF907000007E80030F907000000E000FE
:1046A00053003200B1FE21008048780011C0B300F1
:1046B000E80F500001003C008040EB00C0FE2100EC
:1046C000520020008208DD00104178000254A10051
:1046D00001487100460037007FB09700DE68020095
:1046E0000000000002C2B300C1FE210011406100C1
:1046F00005003A0080C0B3008101E900934F10002B
:1047000005003A000B00370002C1B300B1FE2100E2
:10471000914F110007003200B0C3B30006660200DB
:1047200000000000B3FE210013407800E2660200A2
:1047300000000000C1FE21009140780068C06000C8
:1047400006003200B2FE2100924078007FB0970050
:10475000B664020000000000F0B79F0073FE210065
:104760009380FB00000320000088B900680040002F
:1047700082C62100E20078007FB0970001000100AE
:10478000D0B79F0000C2B300066602000000000020
:1047900001C4B300C3FE210013C060001600320044
:1047A0000800BE00687C020000000000C2FE21007C
:1047B000124178006840610006003200B3FE21001B
:1047C000934078005FB09700B664020000000000DC
:1047D000D0B79F005FB09700DE68020000000000C5
:1047E00000C2B300066602000000000002003700AD
:1047F000E8F62800090020000E07E900B6FF3A009D
:1048000000BB28005A68020000000000CA00370000
:10481000E0F6280001002000687C02000000000093
:104820009AF40700E0EF9F00B7F807000004780053
:10483000CAF807000000E0000C003200B1FE2100C1
:104840008048780011C0B300E80F500001003C0020
:104850008040EB00C0FE2100520020008208DD00F5
:10486000104178000254A100014871006FE89700E0
:104870000004E0000500320060FE21009040780056
:10488000E1E79F006FE997000248E9000800E000B7
:1048900027003200C9FE21000907E90073FE21004C
:1048A0001380FB00020320000280B9006A00400070
:1048B00083C62100630078000000010019417800E0
:1048C000E8406100030032009E407800B6640200B8
:1048D00000000000DE6802000000000003C2B30018
:1048E00019C0610004003A0080C0B3009E4F100060
:1048F00004003A000900370001C1B3009ECF100048
:1049000006003200B0C3B3000666020000000000DB
:104910001E407800E26602000000000000C2B30002
:1049200006660200000000000804E900DBFF3A0010
:104930006FE997000204E0000300320060FE2100EE
:10494000EFE197000348780000BB28005A68020096
:104950000000000078003700E0ED28000100200092
:10496000C27C02000000000070FE21009080FB006D
:10497000000320000088B9006C00400081C62100BF
:1049800061007800000001006B00370040EE280055
:1049900001002000C27C02000000000070FE210027
:1049A0009080FB00000320000088B9006E004000EA
:1049B00081C6210061007800000001005E00370020
:1049C00060D1280001002000C27C0200000000002D
:1049D00070FE21009080FB00000320000088B900D9
:1049E0007000400081C621006100780000000100D5
:1049F0005100370000D2280001002000C27C0200D4
:104A00000000000070FE21009080FB0000032000E9
:104A10000088B9007200400081C621006100780062
:104A20000000010044003700C0D028000100200031
:104A3000687C02000000000070FE21009080FB00F6
:104A4000000320000088B9007400400081C62100E6
:104A5000610078000000010037F4070036003700DD
:104A600029F80700000478001FB09700AFB0970046
:104A7000687C02000000000008007800DE68020088
:104A8000000000000800E0000A00320079FE21006A
:104A90008EC621009980FB00000320000088B90029
:104AA000760040006E007800000001000804E90074
:104AB000F8FF3A0000BB28005A680200000000001E
:104AC0001D00370010F80700000478003FA8970089
:104AD000CFA89700687C0200000000000800E000FA
:104AE0000F00320079FE21008EC621009980FB0064
:104AF000000320000088B900780040006E007800B4
:104B0000000001000080FB000BF4070000C2B300AE
:104B100006660200000000000804E900F3FF3A0006
:104B20000C00BE00C27C0200000000000200370042
:104B3000C0FE21001074A000D0F480000000E80046
:104B4000F007B200D0F488000040EB00C1FE210065
:104B50001104E00018003D0060A9280001002000B9
:104B6000687C020000000000D0F480008FB897003D
:104B7000808F50000400310001405000E2660200C6
:104B8000000000000600370001C8B30001404000EB
:104B90000FF1970002405000E266020000000000A2
:104BA000C0FE21001074A10000BB28005A6802005A
:104BB0000000000010C0B300C1F48000D2F48000F7
:104BC000810F5100020032000004E000FFFB3200C0
:104BD000CFB19700D3F48800C3F4880010EA210015
:104BE0000048EB00CBFA370000E080000180210094
:104BF0006141780031C8B300814F51000E003A0086
:104C00000000E80000E08800018021006141780098
:104C100001CEB300814F510007003E00018021000A
:104C20008100400002CEB3000000E800D14F110027
:104C3000FDFF360000E08800000006000280210031
:104C4000124278000041EB0003CEB300834F5200C4
:104C500023003600128021001281FB004811DD0084
:104C6000238021009381FB0003014100820F50004B
:104C700010003A000B0037008202E80063C37A009C
:104C80004833DD008282E800E3C27A008582FB00BF
:104C900085024300850F5000030032000442B0003B
:104CA000080037000001EB008208780012C0B30052
:104CB0000B0037000442B0000001EB00038021002C
:104CC00007CEB3000482FB006302420004014100EE
:104CD00063427900874F5200E7FF3E000041EB003E
:104CE0000240780000000600D6F4800010417800F1
:104CF00011C0B3000204E0001500320081E1210080
:104D0000E1407B00814F5100070032000300370073
:104D1000E5C17800834F510006003200D6F48800C8
:104D20008040EB000A00370086007800F40720007E
:104D300085E121008100E80084806000D1F48800D2
:104D4000504178000204E000F1FF3A0011C0B300C6
:104D50000140780000000600889FBE008A1F78008E
:104D600049A528000004EB002A0220005900780021
:104D7000DDFF07000004E0000300320000C8B300BC
:104D800000404400040037000804E8008A0F540083
:104D9000F6FF3A000040EB004F0578004F04BE00DC
:104DA00000000600889FBE008A1F78000000EB000C
:104DB00000E0880000802100104478000804E00032
:104DC0002F0032006AA52800800478000804E00063
:104DD000040035000840780006660200000000006C
:104DE0002100370000CEB300804F5400120036007F
:104DF000A09828005A6802000000000000E080002F
:104E00008080E8000000E800694178004811DD007A
:104E100069C078000080FB000000410001E08800CC
:104E2000F06602000000000000C2B3000666020047
:104E3000000000000C00370000C2B300066602004C
:104E4000000000000884FB000808B10008044400CA
:104E50006A007C00786702000000000000C2B30016
:104E6000066602000000000000E080000000E8008C
:104E700000E08800694478000804E000D3FF3A00AD
:104E8000A09828005A6802000000000000E080009E
:104E90000000E900F06602000000000060EC28005D
:104EA00001002000C27C0200000000004F057800D5
:104EB0004F04BE0000000600881F780071C9B300CF
:104EC000814F50003A0032000A003E00E3C050001B
:104ED000814F50001600320081C0E800814F500021
:104EE0002A003200E3C05000814F500048003A00D1
:104EF00018003700A1C9B300814F500036003200BE
:104F000004003E0081C0E900814F500040003A009B
:104F100039003700B1C9B300814F50003100320071
:104F200081C0E800814F500039003A00130037007B
:104F300070FE21009080FB00000320000088B90073
:104F40006A00400081C62100610078000000010075
:104F50003000370070FE21009080FB00000320002D
:104F60000088B9006800400081C621006104780013
:104F7000910007000800010026003700A25C020033
:104F8000000000000080FB002200370070FE2100BE
:104F90009080FB00000320000088B90074004000EE
:104FA00081C621006100780000000100190037006F
:104FB00070FE21009080FB00000320000088B900F3
:104FC0007800400081C621006100780000000100E7
:104FD0000080FB000F0037001016800061006000A9
:104FE0000C003700501680004B00DE0061006000AE
:104FF0000080EA000700370021E3A800C00020007D
:10500000A86402000000000021E3A90001003700AD
:105010000000EB004F0478000000060002E0800072
:1050200000802100E040790080C2B30080CF5000B2
:105030000C003A000201E80002E088005E00070070
:1050400001E0800002802100E2C1780092C2B3003A
:1050500082CF51002B003A008100E80001E0880077
:1050600028003700F0CBB30000C04000F94F5000DB
:1050700008003E008180FB001104B10081804000E7
:1050800080C02100608078000201E80002E0880012
:105090001C00370000C8B30080CF500006003E005F
:1050A00000CDB30000C04000E94F500007003600BB
:1050B0000000EB00130037000201E80002E0880066
:1050C000014078007CFF07000E00370003802100BC
:1050D000830141000000EB0006CDB3006A02B90075
:1050E0000180FB00040040000003B1000201E80061
:1050F000D340780006C24000E94F5200F7FF360067
:1051000002E0880000000600889FBE008A1F780029
:10511000C2FF0700800478000A802100A8C2B30003
:1051200001E080006AC078008100E80001E08800AA
:10513000884F50000C00320004003E0061C2B300F2
:10514000814F500018003A0011003700F1C2B3003F
:10515000814F500008003200C1C7B300814F50009A
:1051600011003A000D003700ACFF070000C8B9007D
:1051700080047800EAFF3700A8FF0700800178006C
:10518000110009008304D80080047800E4FF370090
:10519000A2FF070080846400E1FF37009FFF070043
:1051A00089047000DEFF3700090078004F057800A1
:1051B0004F04BE0000000600889FBE008A1F7800D2
:1051C000D1FF0700000478000A802100C9C3B300A2
:1051D00001E080006AC078008100E80001E08800FA
:1051E000894F50002B00320007003E00B1C2B300CF
:1051F000814F50000E00320081C0E800814F500006
:105200004E003A0007003700D2C3B300824F50006F
:10521000430032000241E800824F500047003A004C
:1052200006003700B8FF070000045400E8FF37000D
:10523000B5FF070000044400E5FF37008100E800E7
:10524000EAC07800D0C3B30080CF50000A003A0013
:10525000ADFF070011002000880F5000010034004E
:105260008000EB000104780000E080000000E8000E
:1052700000E08800D6FF3700A3FF070011002000E0
:10528000880F5000010035008000EB000104780019
:10529000CFFF37008100E8006AC07800E1C3B300A7
:1052A000814F50000A003A0097FF07000804680089
:1052B00008F0A7000804EA000804EA004F44DE00F2
:1052C00000E080000000E80000E08800C0FF370038
:1052D000D1C3B300814F50000A003A008AFF070093
:1052E00011002000880F500001003D008000EB00FD
:1052F0000104780000E080000000E80000E0880081
:10530000B3FF370080FF070011002000880F500016
:1053100001003C008000EB0001047800ACFF370086
:1053200079FF07000804680008F0A7000804EA00F5
:105330000804E9004F44DE00A5FF370008007800AC
:105340004F0578004F04BE0000000600F0874700BC
:10535000889FBE008A9FBE008C9FBE008E1F780073
:105360000000EB0000E0880010E0880020E08800EA
:1053700030E0880080FE21001000A00080C02100E5
:10538000190009000018EB008000EB000006EB009C
:105390008005EB0009802100EDC8B3002AC2B300EC
:1053A0000100E0000E003A0000E08000E9457800CE
:1053B000F1CDB30081CF55002C0336008B85FB0067
:1053C0000B0EB1008000E80069C678004866DD0079
:1053D0000080E800694078000080FB000C06700047
:1053E00002E08000E301410069C079000080FB0019
:1053F0008000EB000008B1000180B1001402200021
:10540000840F5000E08F5800F1023E000060010060
:10541000210037002E003700ED023700EC02370084
:1054200055003700610037007900370089003700E8
:105430008D003700CE00370000013700E40237004E
:105440004101370089013700D2013700E3013700FD
:10545000D5013700FD013700EE01370009023700A2
:10546000DB0237008B02370070023700D8023700AA
:10547000D70237002E0237001F023700AC02370078
:10548000B90237000E0237003B02370056023700E0
:10549000BE023700CC0237006600410000E0880001
:1054A00064014100694479000884FB001804B100DC
:1054B00041FF07000804440081C0210080307C00C7
:1054C000C9FD07008000EB000044EB00C402370078
:1054D0006401410002E0880037FF07000000E0009F
:1054E00009003A0001E0800069C0780032C8B300CA
:1054F000824F50001B00320002CEB300824F50009A
:105500000E003600D602370000E08000E941780046
:105510000000E80000E088008000EB000044EB00A1
:1055200022C8B30082CF5100AD023A0063005000A0
:1055300000E0880011002000A90237000981400026
:1055400033C8B30004CEB3008100E80052407800B5
:10555000834F500003003200844F5000FAFF3600A2
:10556000BE0237008180E90001E0880011002000C0
:105570000044EB009A0237006401410002E0880019
:105580000DFF0700FC805700ACFD07008000EB001A
:1055900068C0B3000004E00091023200AFB297008F
:1055A00005E088000044EB008D02370064014100F3
:1055B00002E0880020E080008000EB0078C0B300AB
:1055C000E90F500086023E0080004000C3C3210066
:1055D000818041000201E9008B0841000000E800E1
:1055E00020E08800F4FE0700FC80570093FD0700D0
:1055F0008000EB0068C0B3000004E00078023200D5
:105600002FB0970000E088000044EB0074023700E0
:10561000B0982800786702000000000020E08000B9
:105620008000EB0088C0B3000000E0006C02320094
:105630000000E90020E0880000004000C1C3210014
:10564000E100780001E088008000EB000044EB00FE
:10565000630237008381450003E088008000EB008F
:105660000044EB005E0237006401410002E0880064
:1056700088FE2100270037008A4F500011003A00B1
:105680008100E80069C078008A4F50000A003200AB
:105690001800A1008100E80001E088000666020011
:1056A000000000001800A00001E0800069C0780040
:1056B0008A4F5000F6FF3A008100E80001E08800C0
:1056C00014003700F2CBB30002414000F94F510003
:1056D0000500360003C8B30083414000F2C5B300A3
:1056E00082CF510006003E00B3FE07001800A10063
:1056F000F0660200000000001800A000050037005E
:10570000B2C3B300824F500002003A008100E800AB
:1057100001E0880001E0800069C07800F2CDB300AC
:10572000824F500003003E0032C8B300824F500049
:10573000D1FF3A008100E900E9C07800B0C3B300AE
:1057400080CF50000600320088FE21001800A10022
:10575000A09828005A680200000000001800A0006D
:1057600021FD07008000EB000044EB001C02370025
:1057700080FE21001000A10001E08000E4804000D4
:1057800001E0880069C078008A4F50000E003A009E
:105790008100E80069C078008A4F5000080032009C
:1057A0008100E80001E088000666020000000000B9
:1057B00001E0800069C078008A4F5000F8FF3A008D
:1057C0008100E80001E0880000E080006941780085
:1057D00038C0B300C1C2B300814F510003003A008A
:1057E0000000E80000E088000044EB0000E08000DA
:1057F000694778000E87FB001E04B1008001EB00B2
:10580000F2FF27006000B8004A1602000000000006
:105810000E07470081C0210080307F0000E080003B
:105820000000E80000E08800EFFC070080FE210097
:105830001000A0008000EB00E90137006401410086
:1058400010E0800048C0B300E30F500003003E00AA
:105850000000E80010E088000044EB006947790090
:105860000E87FB000E04B10010E080006600B90056
:1058700023C52100008041000E487800C870DE007A
:10588000114098000201E80002E08800E940790038
:10589000D0C3B30080CF500008003A000201E800F6
:1058A00002E0880044FE07000E07E9000E074700EB
:1058B00081C0210080307F000100370038C0B30074
:1058C00000E08000E94078000000E80000E0880087
:1058D000B0C8B30080CF500009003A001EE080003D
:1058E00035FE07006671B90041C521008280400085
:1058F000804878004800DE009040980001003700A2
:1059000038C0B30000E0800069417800F1CDB300F9
:10591000814F51000800360012E080006611B90086
:1059200001C5210082804000804878004800DE00E8
:10593000904098000100370038C0B300AAFC07006F
:105940008000EB00A601370064004100E9427800C6
:105950008582FB000504B10065014100C2B79F00CC
:1059600016E08000860178000000EB0058C0B3000C
:1059700001C521008503E900878343008EC0210013
:1059800007014700B2B79F0085BF9F0001003700A5
:10599000030378006602B900D4B79F00E5B79F0003
:1059A0000481E800614279000482FB00028140002A
:1059B000124190004811DD00020272008FBA970078
:1059C000850F520020003A006E817B00F2B79F00E5
:1059D0006602B900D4B79F00E5B79F00640142009A
:1059E000614479000884FB0002814000124190006C
:1059F0004811DD0002017400FFB29700828F52004F
:105A00000F0031003FB197000509E8006602B900B8
:105A1000D4B79F00E5B79F00040178006142790088
:105A20000482FB0002814000124190004811DD0019
:105A300002017200C2B79F000044EB000200370071
:105A40008601E9000044EB000000E800808F51006F
:105A5000CFFF3100CFB2970005E0880013E0880047
:105A600061FC07008000EB005D013700640141002C
:105A700002E088000044EB0030E080000000E0001D
:105A80001C003A003080210090CF16001100320037
:105A90009940780098C0B3000104E000150032007E
:105AA0000000EB008180FB00D10DB100010040003F
:105AB000E3004000E9C078008DCF500006003200BE
:105AC000E94078000104E000F6FF3A0098C0B30016
:105AD000080037000000EB00E940780098C0B300F0
:105AE0000104E000030032006400400030E0880060
:105AF0000044EB000EE0800030E0800000E0880011
:105B000069407F000080FB00F1FB2F008100400016
:105B1000D1B79F0041FD07005FB1970082004100AF
:105B200082C0210000B1780000E0800030E08800F1
:105B30000E07E8000EE0880069417800C1C2B3009A
:105B4000814F510002003A000000E80030E0880078
:105B500030E080006941780001CEB300814F5100F0
:105B600009003600E3004000E9C078008DCF500006
:105B7000030032000000EB0030E088000200370034
:105B80006400400030E0880017FC07008000EB0054
:105B9000130137008381450003E088008000EB009B
:105BA0000044EB000E0137006401410002E0880070
:105BB00070FE21009080FB00000320000088B900E7
:105BC00082C62100620078000000010006FC070088
:105BD0008000EB000044EB0001013700640141004C
:105BE00002E0880070FE21009080FB00000320008E
:105BF0000088B9000080E80081C6210061007800BB
:105C000000000100F8FB07008000EB000044EB00FF
:105C1000F30037006401410002E0880070FE2100BB
:105C20009080FB00000320000088B9006400400061
:105C300081C621006100780000000100EAFB070036
:105C40008000EB000044EB00E500370064014100F8
:105C500002E0880070FE21009080FB00000320001D
:105C60000088B9006600400081C62100610078000C
:105C700000000100DCFB07008000EB000044EB00AB
:105C8000D70037006401410002E0880070FE210067
:105C90009080FB00000320000088B90068004000ED
:105CA00081C621006104780043FD0700080001005F
:105CB000CDFB07008000EB000044EB00C80037007C
:105CC0006401410002E088003BFD07000000E000A5
:105CD000030032006A5C020000000000020037008E
:105CE000865C020000000000BFFB07008000EB00A4
:105CF0000044EB00BA0037006401410002E0880074
:105D00002DFD07000000E00003003200C002A900E2
:105D1000C202A80002003700C002A900C202A90006
:105D2000B1FB07008000EB000044EB00AC00370043
:105D30006401410002E088001FFD07000000E00050
:105D400006003200C0FE2100C1CFB30090C0600049
:105D50000104A0000148780003003700C0FE2100C4
